{
  "_format": "hh-sol-artifact-1",
  "contractName": "ProjectPool",
  "sourceName": "contracts/ProjectPool.sol",
  "abi": [
    {
      "inputs": [
        {
          "internalType": "address",
          "name": "_tokenAddress",
          "type": "address"
        },
        {
          "internalType": "uint256",
          "name": "_tradeValue",
          "type": "uint256"
        },
        {
          "internalType": "uint256",
          "name": "_tokensForSale",
          "type": "uint256"
        },
        {
          "internalType": "uint256",
          "name": "_startDate",
          "type": "uint256"
        },
        {
          "internalType": "uint256",
          "name": "_endDate",
          "type": "uint256"
        },
        {
          "internalType": "uint256",
          "name": "_individualMinimumAmount",
          "type": "uint256"
        },
        {
          "internalType": "uint256",
          "name": "_individualMaximumAmount",
          "type": "uint256"
        },
        {
          "internalType": "bool",
          "name": "_isTokenSwapAtomic",
          "type": "bool"
        },
        {
          "internalType": "uint256",
          "name": "_minimumRaise",
          "type": "uint256"
        },
        {
          "internalType": "uint256",
          "name": "_feeAmount",
          "type": "uint256"
        },
        {
          "internalType": "bool",
          "name": "_hasWhitelisting",
          "type": "bool"
        },
        {
          "internalType": "address payable",
          "name": "_feeRecipient",
          "type": "address"
        }
      ],
      "stateMutability": "nonpayable",
      "type": "constructor"
    },
    {
      "anonymous": false,
      "inputs": [
        {
          "indexed": true,
          "internalType": "address[]",
          "name": "accounts",
          "type": "address[]"
        }
      ],
      "name": "AddedToWhitelist",
      "type": "event"
    },
    {
      "anonymous": false,
      "inputs": [
        {
          "indexed": true,
          "internalType": "address",
          "name": "previousOwner",
          "type": "address"
        },
        {
          "indexed": true,
          "internalType": "address",
          "name": "newOwner",
          "type": "address"
        }
      ],
      "name": "OwnershipTransferred",
      "type": "event"
    },
    {
      "anonymous": false,
      "inputs": [
        {
          "indexed": false,
          "internalType": "address",
          "name": "account",
          "type": "address"
        }
      ],
      "name": "Paused",
      "type": "event"
    },
    {
      "anonymous": false,
      "inputs": [
        {
          "indexed": false,
          "internalType": "uint256",
          "name": "amount",
          "type": "uint256"
        },
        {
          "indexed": true,
          "internalType": "address",
          "name": "purchaser",
          "type": "address"
        },
        {
          "indexed": false,
          "internalType": "uint256",
          "name": "timestamp",
          "type": "uint256"
        }
      ],
      "name": "PurchaseEvent",
      "type": "event"
    },
    {
      "anonymous": false,
      "inputs": [
        {
          "indexed": true,
          "internalType": "address",
          "name": "account",
          "type": "address"
        }
      ],
      "name": "RemovedFromWhitelist",
      "type": "event"
    },
    {
      "anonymous": false,
      "inputs": [
        {
          "indexed": false,
          "internalType": "address",
          "name": "account",
          "type": "address"
        }
      ],
      "name": "Unpaused",
      "type": "event"
    },
    {
      "inputs": [],
      "name": "FEE_ADDRESS",
      "outputs": [
        {
          "internalType": "address payable",
          "name": "",
          "type": "address"
        }
      ],
      "stateMutability": "view",
      "type": "function"
    },
    {
      "inputs": [
        {
          "internalType": "address[]",
          "name": "_addresses",
          "type": "address[]"
        }
      ],
      "name": "add",
      "outputs": [],
      "stateMutability": "nonpayable",
      "type": "function"
    },
    {
      "inputs": [],
      "name": "availableTokens",
      "outputs": [
        {
          "internalType": "uint256",
          "name": "",
          "type": "uint256"
        }
      ],
      "stateMutability": "view",
      "type": "function"
    },
    {
      "inputs": [
        {
          "internalType": "uint256",
          "name": "",
          "type": "uint256"
        }
      ],
      "name": "buyers",
      "outputs": [
        {
          "internalType": "address",
          "name": "",
          "type": "address"
        }
      ],
      "stateMutability": "view",
      "type": "function"
    },
    {
      "inputs": [
        {
          "internalType": "uint256",
          "name": "_amount",
          "type": "uint256"
        }
      ],
      "name": "cost",
      "outputs": [
        {
          "internalType": "uint256",
          "name": "",
          "type": "uint256"
        }
      ],
      "stateMutability": "view",
      "type": "function"
    },
    {
      "inputs": [],
      "name": "decimals",
      "outputs": [
        {
          "internalType": "uint256",
          "name": "",
          "type": "uint256"
        }
      ],
      "stateMutability": "view",
      "type": "function"
    },
    {
      "inputs": [],
      "name": "endDate",
      "outputs": [
        {
          "internalType": "uint256",
          "name": "",
          "type": "uint256"
        }
      ],
      "stateMutability": "view",
      "type": "function"
    },
    {
      "inputs": [],
      "name": "erc20",
      "outputs": [
        {
          "internalType": "contract ERC20",
          "name": "",
          "type": "address"
        }
      ],
      "stateMutability": "view",
      "type": "function"
    },
    {
      "inputs": [],
      "name": "feePercentage",
      "outputs": [
        {
          "internalType": "uint256",
          "name": "",
          "type": "uint256"
        }
      ],
      "stateMutability": "view",
      "type": "function"
    },
    {
      "inputs": [
        {
          "internalType": "uint256",
          "name": "_amount",
          "type": "uint256"
        }
      ],
      "name": "fund",
      "outputs": [],
      "stateMutability": "nonpayable",
      "type": "function"
    },
    {
      "inputs": [],
      "name": "getBuyers",
      "outputs": [
        {
          "internalType": "address[]",
          "name": "",
          "type": "address[]"
        }
      ],
      "stateMutability": "view",
      "type": "function"
    },
    {
      "inputs": [
        {
          "internalType": "address",
          "name": "_address",
          "type": "address"
        }
      ],
      "name": "getMyPurchases",
      "outputs": [
        {
          "internalType": "uint256[]",
          "name": "",
          "type": "uint256[]"
        }
      ],
      "stateMutability": "view",
      "type": "function"
    },
    {
      "inputs": [
        {
          "internalType": "uint256",
          "name": "_purchase_id",
          "type": "uint256"
        }
      ],
      "name": "getPurchase",
      "outputs": [
        {
          "internalType": "uint256",
          "name": "",
          "type": "uint256"
        },
        {
          "internalType": "address",
          "name": "",
          "type": "address"
        },
        {
          "internalType": "uint256",
          "name": "",
          "type": "uint256"
        },
        {
          "internalType": "uint256",
          "name": "",
          "type": "uint256"
        },
        {
          "internalType": "bool",
          "name": "",
          "type": "bool"
        },
        {
          "internalType": "bool",
          "name": "",
          "type": "bool"
        }
      ],
      "stateMutability": "view",
      "type": "function"
    },
    {
      "inputs": [],
      "name": "getPurchaseIds",
      "outputs": [
        {
          "internalType": "uint256[]",
          "name": "",
          "type": "uint256[]"
        }
      ],
      "stateMutability": "view",
      "type": "function"
    },
    {
      "inputs": [],
      "name": "getWhitelistedAddresses",
      "outputs": [
        {
          "internalType": "address[]",
          "name": "",
          "type": "address[]"
        }
      ],
      "stateMutability": "view",
      "type": "function"
    },
    {
      "inputs": [],
      "name": "hasFinalized",
      "outputs": [
        {
          "internalType": "bool",
          "name": "",
          "type": "bool"
        }
      ],
      "stateMutability": "view",
      "type": "function"
    },
    {
      "inputs": [],
      "name": "hasMinimumAmount",
      "outputs": [
        {
          "internalType": "bool",
          "name": "",
          "type": "bool"
        }
      ],
      "stateMutability": "view",
      "type": "function"
    },
    {
      "inputs": [],
      "name": "hasMinimumRaise",
      "outputs": [
        {
          "internalType": "bool",
          "name": "",
          "type": "bool"
        }
      ],
      "stateMutability": "view",
      "type": "function"
    },
    {
      "inputs": [],
      "name": "hasStarted",
      "outputs": [
        {
          "internalType": "bool",
          "name": "",
          "type": "bool"
        }
      ],
      "stateMutability": "view",
      "type": "function"
    },
    {
      "inputs": [],
      "name": "hasWhitelisting",
      "outputs": [
        {
          "internalType": "bool",
          "name": "",
          "type": "bool"
        }
      ],
      "stateMutability": "view",
      "type": "function"
    },
    {
      "inputs": [],
      "name": "individualMaximumAmount",
      "outputs": [
        {
          "internalType": "uint256",
          "name": "",
          "type": "uint256"
        }
      ],
      "stateMutability": "view",
      "type": "function"
    },
    {
      "inputs": [],
      "name": "individualMinimumAmount",
      "outputs": [
        {
          "internalType": "uint256",
          "name": "",
          "type": "uint256"
        }
      ],
      "stateMutability": "view",
      "type": "function"
    },
    {
      "inputs": [
        {
          "internalType": "uint256",
          "name": "purchase_id",
          "type": "uint256"
        }
      ],
      "name": "isBuyer",
      "outputs": [
        {
          "internalType": "bool",
          "name": "",
          "type": "bool"
        }
      ],
      "stateMutability": "view",
      "type": "function"
    },
    {
      "inputs": [],
      "name": "isOpen",
      "outputs": [
        {
          "internalType": "bool",
          "name": "",
          "type": "bool"
        }
      ],
      "stateMutability": "view",
      "type": "function"
    },
    {
      "inputs": [],
      "name": "isPreStart",
      "outputs": [
        {
          "internalType": "bool",
          "name": "",
          "type": "bool"
        }
      ],
      "stateMutability": "view",
      "type": "function"
    },
    {
      "inputs": [],
      "name": "isSaleFunded",
      "outputs": [
        {
          "internalType": "bool",
          "name": "",
          "type": "bool"
        }
      ],
      "stateMutability": "view",
      "type": "function"
    },
    {
      "inputs": [],
      "name": "isTokenSwapAtomic",
      "outputs": [
        {
          "internalType": "bool",
          "name": "",
          "type": "bool"
        }
      ],
      "stateMutability": "view",
      "type": "function"
    },
    {
      "inputs": [
        {
          "internalType": "address",
          "name": "_address",
          "type": "address"
        }
      ],
      "name": "isWhitelisted",
      "outputs": [
        {
          "internalType": "bool",
          "name": "",
          "type": "bool"
        }
      ],
      "stateMutability": "view",
      "type": "function"
    },
    {
      "inputs": [],
      "name": "minimumRaise",
      "outputs": [
        {
          "internalType": "uint256",
          "name": "",
          "type": "uint256"
        }
      ],
      "stateMutability": "view",
      "type": "function"
    },
    {
      "inputs": [],
      "name": "minimumRaiseAchieved",
      "outputs": [
        {
          "internalType": "bool",
          "name": "",
          "type": "bool"
        }
      ],
      "stateMutability": "view",
      "type": "function"
    },
    {
      "inputs": [],
      "name": "minimumRaiseNotAchieved",
      "outputs": [
        {
          "internalType": "bool",
          "name": "",
          "type": "bool"
        }
      ],
      "stateMutability": "view",
      "type": "function"
    },
    {
      "inputs": [
        {
          "internalType": "address",
          "name": "",
          "type": "address"
        },
        {
          "internalType": "uint256",
          "name": "",
          "type": "uint256"
        }
      ],
      "name": "myPurchases",
      "outputs": [
        {
          "internalType": "uint256",
          "name": "",
          "type": "uint256"
        }
      ],
      "stateMutability": "view",
      "type": "function"
    },
    {
      "inputs": [],
      "name": "owner",
      "outputs": [
        {
          "internalType": "address",
          "name": "",
          "type": "address"
        }
      ],
      "stateMutability": "view",
      "type": "function"
    },
    {
      "inputs": [],
      "name": "paused",
      "outputs": [
        {
          "internalType": "bool",
          "name": "",
          "type": "bool"
        }
      ],
      "stateMutability": "view",
      "type": "function"
    },
    {
      "inputs": [
        {
          "internalType": "uint256",
          "name": "",
          "type": "uint256"
        }
      ],
      "name": "purchaseIds",
      "outputs": [
        {
          "internalType": "uint256",
          "name": "",
          "type": "uint256"
        }
      ],
      "stateMutability": "view",
      "type": "function"
    },
    {
      "inputs": [
        {
          "internalType": "uint256",
          "name": "",
          "type": "uint256"
        }
      ],
      "name": "purchases",
      "outputs": [
        {
          "internalType": "uint256",
          "name": "amount",
          "type": "uint256"
        },
        {
          "internalType": "address",
          "name": "purchaser",
          "type": "address"
        },
        {
          "internalType": "uint256",
          "name": "ethAmount",
          "type": "uint256"
        },
        {
          "internalType": "uint256",
          "name": "timestamp",
          "type": "uint256"
        },
        {
          "internalType": "bool",
          "name": "wasFinalized",
          "type": "bool"
        },
        {
          "internalType": "bool",
          "name": "reverted",
          "type": "bool"
        }
      ],
      "stateMutability": "view",
      "type": "function"
    },
    {
      "inputs": [
        {
          "internalType": "uint256",
          "name": "purchase_id",
          "type": "uint256"
        }
      ],
      "name": "redeemGivenMinimumGoalNotAchieved",
      "outputs": [],
      "stateMutability": "nonpayable",
      "type": "function"
    },
    {
      "inputs": [
        {
          "internalType": "uint256",
          "name": "purchase_id",
          "type": "uint256"
        }
      ],
      "name": "redeemTokens",
      "outputs": [],
      "stateMutability": "nonpayable",
      "type": "function"
    },
    {
      "inputs": [
        {
          "internalType": "address",
          "name": "_address",
          "type": "address"
        },
        {
          "internalType": "uint256",
          "name": "_index",
          "type": "uint256"
        }
      ],
      "name": "remove",
      "outputs": [],
      "stateMutability": "nonpayable",
      "type": "function"
    },
    {
      "inputs": [
        {
          "internalType": "address",
          "name": "_tokenAddress",
          "type": "address"
        },
        {
          "internalType": "address",
          "name": "_to",
          "type": "address"
        }
      ],
      "name": "removeOtherERC20Tokens",
      "outputs": [],
      "stateMutability": "nonpayable",
      "type": "function"
    },
    {
      "inputs": [],
      "name": "renounceOwnership",
      "outputs": [],
      "stateMutability": "nonpayable",
      "type": "function"
    },
    {
      "inputs": [],
      "name": "safePull",
      "outputs": [],
      "stateMutability": "payable",
      "type": "function"
    },
    {
      "inputs": [],
      "name": "startDate",
      "outputs": [
        {
          "internalType": "uint256",
          "name": "",
          "type": "uint256"
        }
      ],
      "stateMutability": "view",
      "type": "function"
    },
    {
      "inputs": [
        {
          "internalType": "uint256",
          "name": "_amount",
          "type": "uint256"
        }
      ],
      "name": "swap",
      "outputs": [],
      "stateMutability": "payable",
      "type": "function"
    },
    {
      "inputs": [],
      "name": "tokensAllocated",
      "outputs": [
        {
          "internalType": "uint256",
          "name": "",
          "type": "uint256"
        }
      ],
      "stateMutability": "view",
      "type": "function"
    },
    {
      "inputs": [],
      "name": "tokensForSale",
      "outputs": [
        {
          "internalType": "uint256",
          "name": "",
          "type": "uint256"
        }
      ],
      "stateMutability": "view",
      "type": "function"
    },
    {
      "inputs": [],
      "name": "tokensLeft",
      "outputs": [
        {
          "internalType": "uint256",
          "name": "",
          "type": "uint256"
        }
      ],
      "stateMutability": "view",
      "type": "function"
    },
    {
      "inputs": [],
      "name": "totalRaiseCost",
      "outputs": [
        {
          "internalType": "uint256",
          "name": "",
          "type": "uint256"
        }
      ],
      "stateMutability": "view",
      "type": "function"
    },
    {
      "inputs": [],
      "name": "tradeValue",
      "outputs": [
        {
          "internalType": "uint256",
          "name": "",
          "type": "uint256"
        }
      ],
      "stateMutability": "view",
      "type": "function"
    },
    {
      "inputs": [
        {
          "internalType": "address",
          "name": "newOwner",
          "type": "address"
        }
      ],
      "name": "transferOwnership",
      "outputs": [],
      "stateMutability": "nonpayable",
      "type": "function"
    },
    {
      "inputs": [],
      "name": "unsoldTokensReedemed",
      "outputs": [
        {
          "internalType": "bool",
          "name": "",
          "type": "bool"
        }
      ],
      "stateMutability": "view",
      "type": "function"
    },
    {
      "inputs": [
        {
          "internalType": "address",
          "name": "",
          "type": "address"
        }
      ],
      "name": "whitelist",
      "outputs": [
        {
          "internalType": "bool",
          "name": "",
          "type": "bool"
        }
      ],
      "stateMutability": "view",
      "type": "function"
    },
    {
      "inputs": [
        {
          "internalType": "uint256",
          "name": "",
          "type": "uint256"
        }
      ],
      "name": "whitelistedAddresses",
      "outputs": [
        {
          "internalType": "address",
          "name": "",
          "type": "address"
        }
      ],
      "stateMutability": "view",
      "type": "function"
    },
    {
      "inputs": [],
      "name": "withdrawFunds",
      "outputs": [],
      "stateMutability": "nonpayable",
      "type": "function"
    },
    {
      "inputs": [],
      "name": "withdrawUnsoldTokens",
      "outputs": [],
      "stateMutability": "nonpayable",
      "type": "function"
    }
  ],
  "bytecode": "0x60806040526003805460ff19908116909155600060048190556009805460ff60a01b19169055600a819055600b8054909216909155600f81905560108190556011819055601281905560135560016015553480156200005d57600080fd5b5060405162003f0538038062003f0583398101604081905262000080916200056c565b6000805460ff19169055816200009633620004fd565b6003805460ff1916911515919091179055428811620001005760405162461bcd60e51b815260206004820152602c602482015260008051602062003ee583398151915260448201526b63757272656e74206461746560a01b60648201526084015b60405180910390fd5b884210620001555760405162461bcd60e51b815260206004820152602c602482015260008051602062003ee583398151915260448201526b63757272656e74206461746560a01b6064820152608401620000f7565b878910620001a65760405162461bcd60e51b815260206004820152601f60248201527f456e64204461746520686967686572207468616e2053746172742044617465006044820152606401620000f7565b60008a11620001f85760405162461bcd60e51b815260206004820152601d60248201527f546f6b656e7320666f722053616c652073686f756c64206265203e20300000006044820152606401620000f7565b868a116200026f5760405162461bcd60e51b815260206004820152603560248201527f546f6b656e7320666f722053616c652073686f756c64206265203e20496e646960448201527f76696475616c204d696e696d756d20416d6f756e7400000000000000000000006064820152608401620000f7565b86861015620002e75760405162461bcd60e51b815260206004820152603f60248201527f496e646976696475616c204d6178696d696d20414d6f756e742073686f756c6460448201527f206265203e20496e646976696475616c204d696e696d756d20416d6f756e74006064820152608401620000f7565b898411156200034b5760405162461bcd60e51b815260206004820152602960248201527f4d696e696d756d2052616973652073686f756c64206265203c20546f6b656e7360448201526820466f722053616c6560b81b6064820152608401620000f7565b6015548310156200039f5760405162461bcd60e51b815260206004820152601d60248201527f4665652050657263656e746167652068617320746f206265203e3d20310000006044820152606401620000f7565b6063831115620003f25760405162461bcd60e51b815260206004820152601e60248201527f4665652050657263656e746167652068617320746f206265203c2031303000006044820152606401620000f7565b600d899055600e88905560138a9055600c8b9055600f87905560108690556014805460ff1916861515179055846200042a5760118490555b600980546001600160a01b0319166001600160a01b038e169081179091556040805163313ce56760e01b8152905163313ce56791600480820192602092909190829003018186803b1580156200047f57600080fd5b505afa15801562000494573d6000803e3d6000fd5b505050506040513d601f19601f82011682018060405250810190620004ba919062000620565b60ff16600a5560159290925550601480546001600160a01b0390921661010002610100600160a81b03199092169190911790555062000663975050505050505050565b600080546001600160a01b03838116610100818102610100600160a81b0319851617855560405193049190911692909183917f8be0079c531659141344cd1fd0a4f28419497f9722a3daafe3b4186f6b6457e091a35050565b805180151581146200056757600080fd5b919050565b6000806000806000806000806000806000806101808d8f0312156200058f578788fd5b8c516200059c816200064a565b809c505060208d01519a5060408d0151995060608d0151985060808d0151975060a08d0151965060c08d01519550620005d860e08e0162000556565b94506101008d015193506101208d01519250620005f96101408e0162000556565b91506101608d01516200060c816200064a565b809150509295989b509295989b509295989b565b60006020828403121562000632578081fd5b815160ff8116811462000643578182fd5b9392505050565b6001600160a01b03811681146200066057600080fd5b50565b61387280620006736000396000f3fe6080604052600436106103605760003560e01c8063785e9e86116101c6578063ba4e5c49116100f7578063e4101de511610095578063f2aa82181161006f578063f2aa821814610a6c578063f2fde38b14610a8c578063f64bfaba14610aac578063fecf415a14610ac157600080fd5b8063e4101de514610a0f578063eb1edd6114610a25578063efbb34d514610a5757600080fd5b8063c4c1c94f116100d1578063c4c1c94f1461099a578063c8bdbfb6146109ba578063ca1d209d146109cf578063d65fb160146109ef57600080fd5b8063ba4e5c4914610944578063c24a0f8b14610964578063c3ca324f1461097a57600080fd5b80639b19251a11610164578063abe7f1ab1161013e578063abe7f1ab146108e0578063b31f8f9314610900578063b367940e14610915578063b7fd706d1461092a57600080fd5b80639b19251a1461087a578063a001ecdd146108aa578063a6e158f8146108c057600080fd5b80638e75b131116101a05780638e75b131146108115780639097548d14610827578063917c854d1461084757806394b918de1461086757600080fd5b8063785e9e86146107225780638392fe31146107745780638da5cb5b146107e157600080fd5b80633af32abf116102a057806369bb4dc21161023e57806370a898bc1161021857806370a898bc146106cb578063715018a6146106e257806374fa05fb146106f7578063755e3e281461070c57600080fd5b806369bb4dc2146106725780636a93df11146106875780636d028027146106a957600080fd5b806347535d7b1161027a57806347535d7b1461060f5780635ac699bb146106245780635c975abb146106445780636295a2f41461065c57600080fd5b80633af32abf1461059a5780634089aa9a146105e057806344691f7e146105f757600080fd5b806321d3002a1161030d5780632e154107116102e75780632e154107146104705780632ebb5c1e14610486578063313ce5671461049d5780633742a9f7146104b357600080fd5b806321d3002a1461043957806324600fc3146104535780632daa8c841461046857600080fd5b806315b578661161033e57806315b57866146103ce578063161a7b2a146103e55780631de18af71461041757600080fd5b806307662345146103655780630b97bc861461039457806312aef8c3146103b8575b600080fd5b34801561037157600080fd5b5060035461037f9060ff1681565b60405190151581526020015b60405180910390f35b3480156103a057600080fd5b506103aa600d5481565b60405190815260200161038b565b3480156103c457600080fd5b506103aa60135481565b3480156103da57600080fd5b50601154151561037f565b3480156103f157600080fd5b5060095461037f9074010000000000000000000000000000000000000000900460ff1681565b34801561042357600080fd5b506104376104323660046134cb565b610b09565b005b34801561044557600080fd5b5060145461037f9060ff1681565b34801561045f57600080fd5b50610437610e77565b6104376110f2565b34801561047c57600080fd5b506103aa600f5481565b34801561049257600080fd5b50600d54421061037f565b3480156104a957600080fd5b506103aa600a5481565b3480156104bf57600080fd5b506105546104ce3660046134cb565b600090815260056020908152604091829020825160c0810184528154808252600183015473ffffffffffffffffffffffffffffffffffffffff16938201849052600283015494820185905260038301546060830181905260049093015460ff80821615156080850181905261010090920416151560a09093018390529095939493909190565b6040805196875273ffffffffffffffffffffffffffffffffffffffff909516602087015293850192909252606084015215156080830152151560a082015260c00161038b565b3480156105a657600080fd5b5061037f6105b536600461334a565b73ffffffffffffffffffffffffffffffffffffffff1660009081526001602052604090205460ff1690565b3480156105ec57600080fd5b50600e54421161037f565b34801561060357600080fd5b50600d5442101561037f565b34801561061b57600080fd5b5061037f611360565b34801561063057600080fd5b506103aa61063f36600461339d565b611381565b34801561065057600080fd5b5060005460ff1661037f565b34801561066857600080fd5b506103aa600c5481565b34801561067e57600080fd5b506103aa6113b2565b34801561069357600080fd5b5061069c611454565b60405161038b91906135a1565b3480156106b557600080fd5b506106be6114ac565b60405161038b9190613547565b3480156106d757600080fd5b50600f54151561037f565b3480156106ee57600080fd5b5061043761151a565b34801561070357600080fd5b5061037f6115ad565b34801561071857600080fd5b506103aa60125481565b34801561072e57600080fd5b5060095461074f9073ffffffffffffffffffffffffffffffffffffffff1681565b60405173ffffffffffffffffffffffffffffffffffffffff909116815260200161038b565b34801561078057600080fd5b5061055461078f3660046134cb565b60056020526000908152604090208054600182015460028301546003840154600490940154929373ffffffffffffffffffffffffffffffffffffffff9092169290919060ff8082169161010090041686565b3480156107ed57600080fd5b50600054610100900473ffffffffffffffffffffffffffffffffffffffff1661074f565b34801561081d57600080fd5b506103aa60115481565b34801561083357600080fd5b506103aa6108423660046134cb565b611658565b34801561085357600080fd5b5061043761086236600461336b565b611686565b6104376108753660046134cb565b6119da565b34801561088657600080fd5b5061037f61089536600461334a565b60016020526000908152604090205460ff1681565b3480156108b657600080fd5b506103aa60155481565b3480156108cc57600080fd5b506104376108db3660046134cb565b612296565b3480156108ec57600080fd5b506104376108fb36600461339d565b612677565b34801561090c57600080fd5b506103aa612860565b34801561092157600080fd5b5061037f612872565b34801561093657600080fd5b50600b5461037f9060ff1681565b34801561095057600080fd5b5061074f61095f3660046134cb565b612928565b34801561097057600080fd5b506103aa600e5481565b34801561098657600080fd5b5061069c61099536600461334a565b61295f565b3480156109a657600080fd5b506104376109b53660046133c6565b6129d8565b3480156109c657600080fd5b50610437612c71565b3480156109db57600080fd5b506104376109ea3660046134cb565b612e4e565b3480156109fb57600080fd5b506103aa610a0a3660046134cb565b6130c6565b348015610a1b57600080fd5b506103aa60105481565b348015610a3157600080fd5b5060145461074f90610100900473ffffffffffffffffffffffffffffffffffffffff1681565b348015610a6357600080fd5b506103aa6130e7565b348015610a7857600080fd5b5061074f610a873660046134cb565b6130f4565b348015610a9857600080fd5b50610437610aa736600461334a565b613104565b348015610ab857600080fd5b506106be613237565b348015610acd57600080fd5b5061037f610adc3660046134cb565b60009081526005602052604090206001015473ffffffffffffffffffffffffffffffffffffffff16331490565b600e544211610b79576040517f08c379a000000000000000000000000000000000000000000000000000000000815260206004820152601360248201527f48617320746f2062652066696e616c697a65640000000000000000000000000060448201526064015b60405180910390fd5b60145460ff1615610be6576040517f08c379a000000000000000000000000000000000000000000000000000000000815260206004820152601960248201527f48617320746f206265206e6f6e2041746f6d69632073776170000000000000006044820152606401610b70565b601154610c4f576040517f08c379a000000000000000000000000000000000000000000000000000000000815260206004820152601a60248201527f4d696e696d756d2072616973652068617320746f2065786973740000000000006044820152606401610b70565b610c576115ad565b610cbd576040517f08c379a000000000000000000000000000000000000000000000000000000000815260206004820152601f60248201527f4d696e696d756d2072616973652068617320746f2062652072656163686564006044820152606401610b70565b60008181526005602052604090205415801590610cec575060008181526005602052604090206004015460ff16155b610d78576040517f08c379a000000000000000000000000000000000000000000000000000000000815260206004820152602160248201527f5075726368617365206973206569746865722030206f722066696e616c697a6560448201527f64000000000000000000000000000000000000000000000000000000000000006064820152608401610b70565b60008181526005602052604090206001015473ffffffffffffffffffffffffffffffffffffffff163314610e08576040517f08c379a000000000000000000000000000000000000000000000000000000000815260206004820152601460248201527f41646472657373206973206e6f742062757965720000000000000000000000006044820152606401610b70565b6000818152600560205260408082206004810180547fffffffffffffffffffffffffffffffffffffffffffffffffffffffffffff00001661010117905560020154905133926108fc831502929190818181858888f19350505050158015610e73573d6000803e3d6000fd5b5050565b60005473ffffffffffffffffffffffffffffffffffffffff610100909104163314610efe576040517f08c379a000000000000000000000000000000000000000000000000000000000815260206004820181905260248201527f4f776e61626c653a2063616c6c6572206973206e6f7420746865206f776e65726044820152606401610b70565b60005460ff1615610f6b576040517f08c379a000000000000000000000000000000000000000000000000000000000815260206004820152601060248201527f5061757361626c653a20706175736564000000000000000000000000000000006044820152606401610b70565b600e544211610fd6576040517f08c379a000000000000000000000000000000000000000000000000000000000815260206004820152601360248201527f48617320746f2062652066696e616c697a6564000000000000000000000000006044820152606401610b70565b610fde612872565b611044576040517f08c379a000000000000000000000000000000000000000000000000000000000815260206004820152601f60248201527f4d696e696d756d2072616973652068617320746f2062652072656163686564006044820152606401610b70565b601460019054906101000a900473ffffffffffffffffffffffffffffffffffffffff1673ffffffffffffffffffffffffffffffffffffffff166108fc6064601554476110909190613751565b61109a91906135f1565b6040518115909202916000818181858888f193505050501580156110c2573d6000803e3d6000fd5b5060405133904780156108fc02916000818181858888f193505050501580156110ef573d6000803e3d6000fd5b50565b60005473ffffffffffffffffffffffffffffffffffffffff610100909104163314611179576040517f08c379a000000000000000000000000000000000000000000000000000000000815260206004820181905260248201527f4f776e61626c653a2063616c6c6572206973206e6f7420746865206f776e65726044820152606401610b70565b60005460ff166111e5576040517f08c379a000000000000000000000000000000000000000000000000000000000815260206004820152601460248201527f5061757361626c653a206e6f74207061757365640000000000000000000000006044820152606401610b70565b60405133904780156108fc02916000818181858888f19350505050158015611211573d6000803e3d6000fd5b506009546040517f70a0823100000000000000000000000000000000000000000000000000000000815230600482015273ffffffffffffffffffffffffffffffffffffffff9091169063a9059cbb90339083906370a082319060240160206040518083038186803b15801561128557600080fd5b505afa158015611299573d6000803e3d6000fd5b505050506040513d601f19601f820116820180604052508101906112bd91906134e3565b6040517fffffffff0000000000000000000000000000000000000000000000000000000060e085901b16815273ffffffffffffffffffffffffffffffffffffffff90921660048301526024820152604401602060405180830381600087803b15801561132857600080fd5b505af115801561133c573d6000803e3d6000fd5b505050506040513d601f19601f820116820180604052508101906110ef91906134ab565b600061136e600d5442101590565b801561137c5750600e544211155b905090565b6008602052816000526040600020818154811061139d57600080fd5b90600052602060002001600091509150505481565b6009546040517f70a0823100000000000000000000000000000000000000000000000000000000815230600482015260009173ffffffffffffffffffffffffffffffffffffffff16906370a082319060240160206040518083038186803b15801561141c57600080fd5b505afa158015611430573d6000803e3d6000fd5b505050506040513d601f19601f8201168201806040525081019061137c91906134e3565b606060078054806020026020016040519081016040528092919081815260200182805480156114a257602002820191906000526020600020905b81548152602001906001019080831161148e575b5050505050905090565b606060028054806020026020016040519081016040528092919081815260200182805480156114a257602002820191906000526020600020905b815473ffffffffffffffffffffffffffffffffffffffff1681526001909101906020018083116114e6575050505050905090565b60005473ffffffffffffffffffffffffffffffffffffffff6101009091041633146115a1576040517f08c379a000000000000000000000000000000000000000000000000000000000815260206004820181905260248201527f4f776e61626c653a2063616c6c6572206973206e6f7420746865206f776e65726044820152606401610b70565b6115ab60006132a4565b565b60006115ba601154611658565b6115c5601254611658565b10611652576040517f08c379a000000000000000000000000000000000000000000000000000000000815260206004820152602e60248201527f546f74616c526169736520697320626967676572207468616e206d696e696d7560448201527f6d20726169736520616d6f756e740000000000000000000000000000000000006064820152608401610b70565b50600190565b6000600a54600a611669919061368b565b600c546116769084613751565b61168091906135f1565b92915050565b60005473ffffffffffffffffffffffffffffffffffffffff61010090910416331461170d576040517f08c379a000000000000000000000000000000000000000000000000000000000815260206004820181905260248201527f4f776e61626c653a2063616c6c6572206973206e6f7420746865206f776e65726044820152606401610b70565b600e544211611778576040517f08c379a000000000000000000000000000000000000000000000000000000000815260206004820152601360248201527f48617320746f2062652066696e616c697a6564000000000000000000000000006044820152606401610b70565b60095473ffffffffffffffffffffffffffffffffffffffff83811691161415611823576040517f08c379a000000000000000000000000000000000000000000000000000000000815260206004820152603b60248201527f546f6b656e20416464726573732068617320746f20626520646966662074686160448201527f6e20746865206572633230207375626a65637420746f2073616c6500000000006064820152608401610b70565b6040517f70a08231000000000000000000000000000000000000000000000000000000008152306004820152829073ffffffffffffffffffffffffffffffffffffffff82169063a9059cbb90849083906370a082319060240160206040518083038186803b15801561189457600080fd5b505afa1580156118a8573d6000803e3d6000fd5b505050506040513d601f19601f820116820180604052508101906118cc91906134e3565b6040517fffffffff0000000000000000000000000000000000000000000000000000000060e085901b16815273ffffffffffffffffffffffffffffffffffffffff90921660048301526024820152604401602060405180830381600087803b15801561193757600080fd5b505af115801561194b573d6000803e3d6000fd5b505050506040513d601f19601f8201168201806040525081019061196f91906134ab565b6119d5576040517f08c379a000000000000000000000000000000000000000000000000000000000815260206004820152601b60248201527f455243323020546f6b656e207472616e73666572206661696c656400000000006044820152606401610b70565b505050565b60005460ff1615611a47576040517f08c379a000000000000000000000000000000000000000000000000000000000815260206004820152601060248201527f5061757361626c653a20706175736564000000000000000000000000000000006044820152606401610b70565b60095474010000000000000000000000000000000000000000900460ff16611acb576040517f08c379a000000000000000000000000000000000000000000000000000000000815260206004820152601060248201527f48617320746f2062652066756e646564000000000000000000000000000000006044820152606401610b70565b611ad3611360565b611b39576040517f08c379a000000000000000000000000000000000000000000000000000000000815260206004820152600e60248201527f48617320746f206265206f70656e0000000000000000000000000000000000006044820152606401610b70565b60035460ff1615611b60573360009081526001602052604090205460ff16611b6057600080fd5b60008111611bca576040517f08c379a000000000000000000000000000000000000000000000000000000000815260206004820152601960248201527f416d6f756e742068617320746f20626520706f736974697665000000000000006044820152606401610b70565b611bd2612860565b811115611c60576040517f08c379a0000000000000000000000000000000000000000000000000000000008152602060048201526024808201527f416d6f756e74206973206c657373207468616e20746f6b656e7320617661696c60448201527f61626c65000000000000000000000000000000000000000000000000000000006064820152608401610b70565b611c6981611658565b3414611d1d576040517f08c379a000000000000000000000000000000000000000000000000000000000815260206004820152605160248201527f557365722068617320746f20636f7665722074686520636f7374206f6620746860448201527f65207377617020696e204554482c207573652074686520636f73742066756e6360648201527f74696f6e20746f2064657465726d696e65000000000000000000000000000000608482015260a401610b70565b600f54811015611dae576040517f08c379a0000000000000000000000000000000000000000000000000000000008152602060048201526024808201527f416d6f756e7420697320626967676572207468616e206d696e696d756d20616d60448201527f6f756e74000000000000000000000000000000000000000000000000000000006064820152608401610b70565b601054811115611e40576040517f08c379a000000000000000000000000000000000000000000000000000000000815260206004820152602560248201527f416d6f756e7420697320736d616c6c6572207468616e206d6178696d756d206160448201527f6d6f756e740000000000000000000000000000000000000000000000000000006064820152608401610b70565b6000611e4b3361295f565b90506000805b8251811015611f3b57600060056000858481518110611e99577f4e487b7100000000000000000000000000000000000000000000000000000000600052603260045260246000fd5b6020908102919091018101518252818101929092526040908101600020815160c0810183528154808252600183015473ffffffffffffffffffffffffffffffffffffffff1694820194909452600282015492810192909252600381015460608301526004015460ff8082161515608084015261010090910416151560a08201529150611f2590846135d9565b9250508080611f33906137a5565b915050611e51565b50601054611f4984836135d9565b1115611fd7576040517f08c379a000000000000000000000000000000000000000000000000000000000815260206004820152603160248201527f416464726573732068617320616c72656164792070617373656420746865206d60448201527f617820616d6f756e74206f6620737761700000000000000000000000000000006064820152608401610b70565b60145460ff1615612095576009546040517fa9059cbb0000000000000000000000000000000000000000000000000000000081523360048201526024810185905273ffffffffffffffffffffffffffffffffffffffff9091169063a9059cbb90604401602060405180830381600087803b15801561205457600080fd5b505af1158015612068573d6000803e3d6000fd5b505050506040513d601f19601f8201168201806040525081019061208c91906134ab565b61209557600080fd5b600480549060019060006120a983856135d9565b90915550506040805160c08101825285815233602080830182815234848601908152426060860190815260145460ff16151560808701908152600060a088018181528a8252600587528982208951815595516001878101805473ffffffffffffffffffffffffffffffffffffffff939093167fffffffffffffffffffffffff0000000000000000000000000000000000000000938416179055955160028801559351600387015591516004909501805492511515610100027fffffffffffffffffffffffffffffffffffffffffffffffffffffffffffff00ff961515969096167fffffffffffffffffffffffffffffffffffffffffffffffffffffffffffff000090931692909217949094179055600780548084019091557fa66cc928b5edb82af9bd49922954155ab7b0942694bea4ce44661d9a8736c68801889055848352600884529582208054808301825590835292822090920186905560068054928301815581527ff652222313e28459528d920b65115c16c04f3efc82aaedc97be59f3f377c0d3f909101805490941690911790925560128054919287926122509084906135d9565b90915550506040805186815242602082015233917fbec109f7ee137de661c6887caa96653c0545050a9908a3b6eb5190440bbec864910160405180910390a25050505050565b60145460ff1615612303576040517f08c379a000000000000000000000000000000000000000000000000000000000815260206004820152601960248201527f48617320746f206265206e6f6e2041746f6d69632073776170000000000000006044820152606401610b70565b600e54421161236e576040517f08c379a000000000000000000000000000000000000000000000000000000000815260206004820152601360248201527f48617320746f2062652066696e616c697a6564000000000000000000000000006044820152606401610b70565b60005460ff16156123db576040517f08c379a000000000000000000000000000000000000000000000000000000000815260206004820152601060248201527f5061757361626c653a20706175736564000000000000000000000000000000006044820152606401610b70565b6000818152600560205260409020541580159061240a575060008181526005602052604090206004015460ff16155b612496576040517f08c379a000000000000000000000000000000000000000000000000000000000815260206004820152602160248201527f5075726368617365206973206569746865722030206f722066696e616c697a6560448201527f64000000000000000000000000000000000000000000000000000000000000006064820152608401610b70565b60008181526005602052604090206001015473ffffffffffffffffffffffffffffffffffffffff163314612526576040517f08c379a000000000000000000000000000000000000000000000000000000000815260206004820152601460248201527f41646472657373206973206e6f742062757965720000000000000000000000006044820152606401610b70565b60008181526005602052604090819020600480820180547fffffffffffffffffffffffffffffffffffffffffffffffffffffffffffffff00166001179055600954915492517fa9059cbb0000000000000000000000000000000000000000000000000000000081523391810191909152602481019290925273ffffffffffffffffffffffffffffffffffffffff169063a9059cbb906044015b602060405180830381600087803b1580156125d957600080fd5b505af11580156125ed573d6000803e3d6000fd5b505050506040513d601f19601f8201168201806040525081019061261191906134ab565b6110ef576040517f08c379a000000000000000000000000000000000000000000000000000000000815260206004820152601560248201527f4552433230207472616e73666572206661696c656400000000000000000000006044820152606401610b70565b60005473ffffffffffffffffffffffffffffffffffffffff6101009091041633146126fe576040517f08c379a000000000000000000000000000000000000000000000000000000000815260206004820181905260248201527f4f776e61626c653a2063616c6c6572206973206e6f7420746865206f776e65726044820152606401610b70565b60028181548110612738577f4e487b7100000000000000000000000000000000000000000000000000000000600052603260045260246000fd5b60009182526020909120015473ffffffffffffffffffffffffffffffffffffffff83811691161461276857600080fd5b73ffffffffffffffffffffffffffffffffffffffff8216600090815260016020526040902080547fffffffffffffffffffffffffffffffffffffffffffffffffffffffffffffff0016905560028054829081106127ee577f4e487b7100000000000000000000000000000000000000000000000000000000600052603260045260246000fd5b6000918252602082200180547fffffffffffffffffffffffff000000000000000000000000000000000000000016905560405173ffffffffffffffffffffffffffffffffffffffff8416917fcdd2e9b91a56913d370075169cefa1602ba36be5301664f752192bb1709df75791a25050565b600060125460135461137c919061378e565b600061287f601154151590565b156116525761288f601154611658565b61289a601254611658565b1015611652576040517f08c379a000000000000000000000000000000000000000000000000000000000815260206004820152602c60248201527f546f74616c5261697365206973206c657373207468616e206d696e696d756d2060448201527f726169736520616d6f756e7400000000000000000000000000000000000000006064820152608401610b70565b6002818154811061293857600080fd5b60009182526020909120015473ffffffffffffffffffffffffffffffffffffffff16905081565b73ffffffffffffffffffffffffffffffffffffffff81166000908152600860209081526040918290208054835181840281018401909452808452606093928301828280156129cc57602002820191906000526020600020905b8154815260200190600101908083116129b8575b50505050509050919050565b60005473ffffffffffffffffffffffffffffffffffffffff610100909104163314612a5f576040517f08c379a000000000000000000000000000000000000000000000000000000000815260206004820181905260248201527f4f776e61626c653a2063616c6c6572206973206e6f7420746865206f776e65726044820152606401610b70565b60005b8151811015612c2f5760016000838381518110612aa8577f4e487b7100000000000000000000000000000000000000000000000000000000600052603260045260246000fd5b60209081029190910181015173ffffffffffffffffffffffffffffffffffffffff1682528101919091526040016000205460ff16151560011415612aeb57600080fd5b6001806000848481518110612b29577f4e487b7100000000000000000000000000000000000000000000000000000000600052603260045260246000fd5b602002602001015173ffffffffffffffffffffffffffffffffffffffff1673ffffffffffffffffffffffffffffffffffffffff16815260200190815260200160002060006101000a81548160ff0219169083151502179055506002828281518110612bbd577f4e487b7100000000000000000000000000000000000000000000000000000000600052603260045260246000fd5b60209081029190910181015182546001810184556000938452919092200180547fffffffffffffffffffffffff00000000000000000000000000000000000000001673ffffffffffffffffffffffffffffffffffffffff90921691909117905580612c27816137a5565b915050612a62565b5080604051612c3e91906134fb565b604051908190038120907fe3c5086a518f78e8aa61952bb9c28a9a0f0022707e537ea961faa918e0d89f6f90600090a250565b60005473ffffffffffffffffffffffffffffffffffffffff610100909104163314612cf8576040517f08c379a000000000000000000000000000000000000000000000000000000000815260206004820181905260248201527f4f776e61626c653a2063616c6c6572206973206e6f7420746865206f776e65726044820152606401610b70565b600e544211612d63576040517f08c379a000000000000000000000000000000000000000000000000000000000815260206004820152601360248201527f48617320746f2062652066696e616c697a6564000000000000000000000000006044820152606401610b70565b600b5460ff1615612d7357600080fd5b6000612d80601154151590565b8015612d9f5750612d92601154611658565b612d9d601254611658565b105b15612dad5750601354612dc0565b601254601354612dbd919061378e565b90505b80156110ef57600b80547fffffffffffffffffffffffffffffffffffffffffffffffffffffffffffffff001660011790556009546040517fa9059cbb0000000000000000000000000000000000000000000000000000000081523360048201526024810183905273ffffffffffffffffffffffffffffffffffffffff9091169063a9059cbb906044016125bf565b600d544210612eb9576040517f08c379a000000000000000000000000000000000000000000000000000000000815260206004820152601560248201527f48617320746f206265207072652d7374617274656400000000000000000000006044820152606401610b70565b60135481612ec56113b2565b612ecf91906135d9565b1115612f5d576040517f08c379a000000000000000000000000000000000000000000000000000000000815260206004820152603860248201527f5472616e73666572656420746f6b656e73206861766520746f2062652065717560448201527f616c206f72206c657373207468616e2070726f706f73656400000000000000006064820152608401610b70565b6009546040517f23b872dd0000000000000000000000000000000000000000000000000000000081523360048201523060248201526044810183905273ffffffffffffffffffffffffffffffffffffffff909116906323b872dd90606401602060405180830381600087803b158015612fd557600080fd5b505af1158015612fe9573d6000803e3d6000fd5b505050506040513d601f19601f8201168201806040525081019061300d91906134ab565b613073576040517f08c379a000000000000000000000000000000000000000000000000000000000815260206004820152601b60248201527f4661696c656420455243323020746f6b656e207472616e7366657200000000006044820152606401610b70565b60135461307e6113b2565b14156110ef57600980547fffffffffffffffffffffff00ffffffffffffffffffffffffffffffffffffffff167401000000000000000000000000000000000000000017905550565b600781815481106130d657600080fd5b600091825260209091200154905081565b600061137c601354611658565b6006818154811061293857600080fd5b60005473ffffffffffffffffffffffffffffffffffffffff61010090910416331461318b576040517f08c379a000000000000000000000000000000000000000000000000000000000815260206004820181905260248201527f4f776e61626c653a2063616c6c6572206973206e6f7420746865206f776e65726044820152606401610b70565b73ffffffffffffffffffffffffffffffffffffffff811661322e576040517f08c379a000000000000000000000000000000000000000000000000000000000815260206004820152602660248201527f4f776e61626c653a206e6577206f776e657220697320746865207a65726f206160448201527f64647265737300000000000000000000000000000000000000000000000000006064820152608401610b70565b6110ef816132a4565b606060068054806020026020016040519081016040528092919081815260200182805480156114a25760200282019190600052602060002090815473ffffffffffffffffffffffffffffffffffffffff1681526001909101906020018083116114e6575050505050905090565b6000805473ffffffffffffffffffffffffffffffffffffffff8381166101008181027fffffffffffffffffffffff0000000000000000000000000000000000000000ff851617855560405193049190911692909183917f8be0079c531659141344cd1fd0a4f28419497f9722a3daafe3b4186f6b6457e091a35050565b803573ffffffffffffffffffffffffffffffffffffffff8116811461334557600080fd5b919050565b60006020828403121561335b578081fd5b61336482613321565b9392505050565b6000806040838503121561337d578081fd5b61338683613321565b915061339460208401613321565b90509250929050565b600080604083850312156133af578182fd5b6133b883613321565b946020939093013593505050565b600060208083850312156133d8578182fd5b823567ffffffffffffffff808211156133ef578384fd5b818501915085601f830112613402578384fd5b8135818111156134145761341461380d565b8060051b6040517fffffffffffffffffffffffffffffffffffffffffffffffffffffffffffffffe0603f830116810181811085821117156134575761345761380d565b604052828152858101935084860182860187018a1015613475578788fd5b8795505b8386101561349e5761348a81613321565b855260019590950194938601938601613479565b5098975050505050505050565b6000602082840312156134bc578081fd5b81518015158114613364578182fd5b6000602082840312156134dc578081fd5b5035919050565b6000602082840312156134f4578081fd5b5051919050565b815160009082906020808601845b8381101561353b57815173ffffffffffffffffffffffffffffffffffffffff1685529382019390820190600101613509565b50929695505050505050565b6020808252825182820181905260009190848201906040850190845b8181101561359557835173ffffffffffffffffffffffffffffffffffffffff1683529284019291840191600101613563565b50909695505050505050565b6020808252825182820181905260009190848201906040850190845b81811015613595578351835292840192918401916001016135bd565b600082198211156135ec576135ec6137de565b500190565b600082613625577f4e487b710000000000000000000000000000000000000000000000000000000081526012600452602481fd5b500490565b600181815b8085111561368357817fffffffffffffffffffffffffffffffffffffffffffffffffffffffffffffffff04821115613669576136696137de565b8085161561367657918102915b93841c939080029061362f565b509250929050565b600061336483836000826136a157506001611680565b816136ae57506000611680565b81600181146136c457600281146136ce576136ea565b6001915050611680565b60ff8411156136df576136df6137de565b50506001821b611680565b5060208310610133831016604e8410600b841016171561370d575081810a611680565b613717838361362a565b807fffffffffffffffffffffffffffffffffffffffffffffffffffffffffffffffff04821115613749576137496137de565b029392505050565b6000817fffffffffffffffffffffffffffffffffffffffffffffffffffffffffffffffff0483118215151615613789576137896137de565b500290565b6000828210156137a0576137a06137de565b500390565b60007fffffffffffffffffffffffffffffffffffffffffffffffffffffffffffffffff8214156137d7576137d76137de565b5060010190565b7f4e487b7100000000000000000000000000000000000000000000000000000000600052601160045260246000fd5b7f4e487b7100000000000000000000000000000000000000000000000000000000600052604160045260246000fdfea2646970667358221220a37d7a1fc3eac6c259ba738ae3cd16cb68d7e4ac5f4cfea8533597fb404f442464736f6c63430008040033456e6420446174652073686f756c642062652066757274686572207468616e20",
  "linkReferences": {},
  "deployedLinkReferences": {}
}